:020000040800F2
:100000002025002001010008BB1A0008E71900089C
:10001000B91A000869050008F11D00080000000079
:10002000000000000000000000000000ED1C0008BF
:100030006B05000800000000BD1A0008EF1C000856
:100040001B0100081B0100081B010008011C00081F
:100050001B0100081B0100081B0100081B01000810
:100060001B0100081B0100081B0100081B01000800
:100070001B0100081B0100081B0100081B010008F0
:100080001B0100081B0100081B0100081B010008E0
:100090001B0100081B0100081B0100081B010008D0
:1000A0001B0100081B0100081B0100081B010008C0
:1000B0001B0100081B010008791D00081B01000836
:1000C0001B0100081B0100081B0100081B010008A0
:1000D0001B0100081B0100081B0100081B01000890
:1000E0001B0100081B0100081B010008DFF80CD0F1
:1000F00000F0BEF900480047A52E0008202500208A
:100100000648804706480047FEE7FEE7FEE7FEE7B1
:10011000FEE7FEE7FEE7FEE7FEE7FEE7771D0008E5
:10012000ED000008D2B201E000F8012B491EFBD21D
:1001300070470022F6E710B513460A4604461946F2
:10014000FFF7F0FF204610BDF0B480EA0102D40FA3
:100150004200B2EB410F02D20246084611464A0065
:1001600042D0C30DDDB2C1F3C752AD1A202D35DA2E
:10017000C1F3160141F4000204B15242C5F1200658
:1001800002FA06F12A411044B3EBD05F23D0C4B188
:10019000012DA0EBC35009DCF0BC4FF0004202EA95
:1001A000C352DBB200F5000000F0E6B8400000F1F9
:1001B000807000EBC350A0F1807040EAD17049001C
:1001C00009E0490841EAC071A0EBC35000F5000006
:1001D000400800EBC350F0BC00F0C5B861420122FA
:1001E00002EB4101001BF6E7F0BC704781F00041D3
:1001F000AAE780F00040A7E780EA010210B502F00C
:100200000043400022D04A001FD0010E01EB1261D2
:10021000C0F35600C2F3560240F4000042F400025C
:10022000A0FB022000047F39140400D0401C50EAD7
:10023000124001D44000491EC2B20C0604EBD0109B
:10024000401C4008802A02D003E0002010BD20F0AE
:100250000100002900DA0020184310BD30B480EA04
:10026000010202F0004530F0004221F0004013D0BE
:1002700090B1C30DD40DC2F31601C0F31600E41AF9
:1002800041F4000140F400027D34914201D3641C2A
:1002900000E04900002C02DA30BC002070474FF427
:1002A00000000023914201D3891A034340084FEA1A
:1002B0004101F7D151B1914202D14FF0004105E027
:1002C00002D24FF0010101E06FF0010103EBC450D5
:1002D000284430BC00F047B8420005D0C0F3C752F4
:1002E0005242914201DC0020704700EBC150704740
:1002F000C10F80EAE0700844CA079623002100F08D
:100300003BB896230022114600F036B800F00042B8
:1003100020F00040C10DC0F3160040F400007F291A
:1003200001DA00207047962903DCC1F19601C8402C
:1003300001E096398840002AF4D04042704720F00E
:100340000040C10DC0F3160040F400007F2901DA1F
:1003500000207047962903DCC1F19601C840704720
:100360009639884070470029A8BF7047401C490053
:1003700008BF20F00100704710B4B0FA80FC00FA0A
:100380000CF050EA010404BF10BC704749B1CCF135
:10039000200421FA04F411FA0CF118BF01212143C1
:1003A0000843A3EB0C01CB1D4FEA00614FEA10207C
:1003B00042BF002010BC704700EBC350104400291E
:1003C000A4BF10BC7047401C490008BF20F00100CA
:1003D00010BC7047F0B4002802DCF0BC002070476D
:1003E000C0F3C751C0F3160040F40000CA0701D1A2
:1003F0004000491E3F2202EB6105002211464FF4E6
:10040000000626FA01F31344D418844201D8001BD5
:100410001A464000491C1729F3DD5100814202D2DF
:100420004FF0FF3100E0002102EBC550F0BCFFF7B8
:100430009ABF10B541000CD0C0F3C751962908DC13
:100440007E2909DC06DB410204D000F0004040F0C8
:100450007E5010BD002010BDC1F19604C4F12001F2
:1004600000FA01F1E040FFF77EFFA04010BD000060
:10047000064C074D06E0E06840F0010394E80700F1
:1004800098471034AC42F6D3FFF734FE60370008CB
:100490008037000870B5044600688168C943C90701
:1004A00017D1816821F00101816000F007FB05464A
:1004B0000AE000BF00F002FB401B022804D92068BC
:1004C0008068C043C00706D020688068C043C0076A
:1004D000F0D0002070BDA06A40F01000A062E06A79
:1004E00040F00100E062012070BD0000F8B5002678
:1004F0000446009600688168C943C9072DD0816809
:1005000041F001018160164816490068B0FBF1F026
:1005100000E0401E00900028FBD100F0CFFA054615
:1005200016E000BF00F0CAFA401B022810D920686C
:100530008068C043C0070BD0A06A40F01000A062E2
:10054000E06A40F00100E06284F824600120F8BD18
:1005500020688068C043C007E4D10020F8BD0000D7
:100560000C00002040420F00FEE77047F8B5002461
:10057000009490F824202546012A12D0012280F808
:1005800024204A681F23072A0DD20668776B521E63
:1005900002EB820293409F430B6893401F437763B3
:1005A00019E00220F8BD06680D2A0AD2376BD21F67
:1005B00002EB820293409F430B6893401F433763D3
:1005C00009E0F76A0D3A02EB820293409F430B6801
:1005D00093401F43F7620A68072306680A2A0AD372
:1005E000F7680A3A02EB420293409F438B689340BC
:1005F0001F43F76008E0376902EB420293409F43D4
:100600008B6893401F4337610A68102A01D0112A72
:1006100020D1124B02689A4217D193681B0219D459
:10062000936843F4000393600968102912D10C49C0
:100630000C4A0968B1FBF2F101EB8101490000E0CD
:10064000491E00910029FBD104E0816A41F020019C
:100650008162012480F824502046F8BD0024014026
:100660000C00002040420F000068C06C7047000082
:100670002DE9F0414FF0000704003D467ED0A06A0E
:10068000002628B9E66284F82460204600F07EF84F
:100690002046FFF7FFFEA16AC90600D420B1A06A78
:1006A00040F01000A06269E0A16A21F4885141F095
:1006B0000201A1626268E169237B0A4347EA4301C0
:1006C0000A43A1684FF48077B94209D0012907D0C5
:1006D0005FF0000194F814C0BCF1010F02D00AE0F1
:1006E0003946F7E7F3B1A36A43F02003A362E36A54
:1006F00043F00103E3622368D3F804C02CF4694C8F
:100700004CEA010CC3F804C021688B68DFF870C0A4
:1007100003EA0C0313438B60A168B9420BD0012993
:1007200009D00CE0DFF85CC0A3690CEB43330B434A
:1007300043F40061DFE7218A0D05A5F580152168E6
:10074000CB6A23F470032B43CB62216889680E4B7C
:100750001940914208D1E662A16A21F0020141F0FC
:100760000101A162BDE8F081A06A20F0020040F022
:100770001000A062E06A40F00100E0620120F1E7B1
:10078000FDF7E1FF00E0FFFFFE0E1FFF00B585B0A3
:100790000021009101910291039100680E49884265
:1007A00018D10E48816941F400718161816901F4B9
:1007B00000710491816941F0040181618069694699
:1007C00000F00400049002200090032001900448EF
:1007D00000F07AF805B000BD00240140001002408E
:1007E0000008014070B5044690F8240001280DD09F
:1007F000012084F824002046FFF778FE02004FF025
:10080000000005D084F82400104670BD022070BDA1
:10081000A16A40F20123994341F48071A1621F4D06
:1008200023681F49AB4218D10E6816F4702F14D0FC
:10083000A66A46F48016A6620E68760505D5A66AF5
:1008400026F4005646F48056A662A66AF6040AD537
:10085000E66A26F00606E66206E0A66A26F4801638
:10086000A6625E68E9E7E06284F824006FF00200A7
:10087000186020688368C3F34243072B05D1A84260
:1008800008D1096811F4702F04D0816841F48011F7
:100890008160B9E7816841F4A001F9E700280140CF
:1008A0000424014070B5044600F008F90546601CB8
:1008B00002D004480078044400F000F9401BA04234
:1008C000FAD370BD000000202DE9F84FDFF8B89191
:1008D000002409F1040A0AF1040B23460F270BF147
:1008E000040EC9E00125A5402A40AA427DD1674EE9
:1008F000D1F804C0ACEB0608B44532D014DCBCF12E
:10090000030F3AD009DCBCF1000F2AD0BCF1010F73
:100910001CD0BCF1020F31D11DE0BCF1110F17D07A
:10092000BCF1120F2AD119E0B8F5881F19D006DCE6
:10093000B8F5803F15D0B8F5801F1FD111E0B8F58C
:10094000001F0ED0B8F5041F18D10AE0CB6815E0DF
:10095000CB681B1D12E0CB6808330FE0CB680C336B
:100960000CE08B682BB1012B4FF0080303D04561DD
:1009700004E0042302E0056100E00023FF2A01D81F
:10098000064601E000F104064FEA840501D9A5F10D
:100990002005D6F8008007FA05FC28EA0C0803FABF
:1009A00005F548EA0508C6F800804D68ED0062D5F7
:1009B000374DAE6946F00106AE61AD6924F003061D
:1009C00005F001050095334D06EB050CDCF80850E9
:1009D000A607360F07FA06F825EA0805DFF8B880FB
:1009E000404503D14FF0000817E044E0DFF8AC8049
:1009F000404502D14FF001080FE0DFF8A4804045E8
:100A000002D14FF0020808E0DFF89880404502D19B
:100A10004FF0030801E04FF0040808FA06F848EA2E
:100A20000508CCF808804D68D9F80060ED034D4604
:100A300001D5164300E096432E604D68DAF8006059
:100A4000AD03554601D5164300E096432E604D6830
:100A5000DBF80060ED025D4601D5164300E09643E9
:100A60002E604D68DEF80060AD02754601D5164374
:100A700000E096432E60641C0D682A46E5407FF432
:100A800031AFBDE8F88F00000004014000001110F4
:100A9000001002400000014000080140000C01402D
:100AA00000100140001401408068084000D001207F
:100AB00070470AB1016170470904FBE7014880688B
:100AC000704700000000002002488168027811444D
:100AD0008160704700000020074810B5016841F0B0
:100AE00010010160032000F08FF8002000F006F8EC
:100AF00000F03EF8002010BD0020024000B5014685
:100B000087B000221E2000F05FF81E2000F04EF893
:100B10001348C16941F00401C161C06905A900F031
:100B200004000690684600F0F7F900F015FA0D4948
:100B30004000B0FBF1F10D480B4A491E02604160D4
:100B400040F2E7320021C0E90321816000F02FFE6E
:100B500010B1012007B000BD044800F057FEF9E7CE
:100B60000010024040420F0000080040D400002066
:100B70000C4808B5816941F001018161816901F08A
:100B800001010091C16941F08051C161C06900F06B
:100B9000805000900448416821F0E06141F000710C
:100BA000416008BD0010024000000140002809DB40
:100BB00000F01F02012191404009800000F1E02077
:100BC000C0F8001170470000F0B40E4B1B680C46D3
:100BD000C3F30223C3F10705042D00D90425191D11
:100BE000072901D2002300E0DB1E012606FA05F1E9
:100BF000491E214099409E40761E16403143F0BC6C
:100C000001F00AB90CED00E0064900F0070208689F
:100C10004FF6FF03184040EA0220034A10430860E1
:100C2000704700000CED00E00000FA0501490120CA
:100C30000862704700000E4210B529A401461DCC81
:100C400086B08DE81D002AA02A4C00680490002080
:100C5000012923D002293AD010291DD161682268C8
:100C6000D20119D5C1F38342C9031DF8020009D589
:100C7000616804AAC1F34041515C1F4AB2FBF1F123
:100C8000484301E01D4948436168490204D44000DB
:100C90005FF00301B0FBF1F006B010BD226AC2F3B1
:100CA0000121012903D1920701D5C803F4E70229E4
:100CB00005D1626A920702D549F64040ECE7032964
:100CC000EAD121688903E7D54FF22440E4E700F038
:100CD00053F96168C1F38131491C4900DAE700002A
:100CE00002030405060708090A0B0C0D0E0F10106D
:100CF000010200000010024000127A0000093D00CD
:100D00002DE9F84305460078354CC00754D0E0691A
:100D10000026C00008D4E06940F08050E061E0693E
:100D2000012600F0805000902E480168C90512D4B9
:100D30000168804641F480710160FFF7BFFE0746FD
:100D400005E000BFFFF7BAFEC01B642823D8D8F81F
:100D50000000C005F6D5206A10F4407021D0A988A3
:100D600001F4407181421CD0206A1F49012220F405
:100D700040700A6000220A602062C00711D0FFF7AD
:100D80009DFE074641F2883808E000BFFFF796FE57
:100D9000C11B414502D90320BDE8F883206A8007C2
:100DA000F4D5206A696820F44070084320621EB1BF
:100DB000E06920F08050E0612878800705D5606800
:100DC000A96820F44040084360602878C00605D533
:100DD0006068E96820F48000084360600020DBE779
:100DE0000010024000700040400442422DE9F047EC
:100DF0000F46050061D0434E306800F00700B8424E
:100E000009D2306820F0070038433060306800F0C5
:100E10000700B84251D128683B4C810712D54007E2
:100E200003D5606840F4E06060602878000703D56F
:100E3000606840F4605060606068A96820F0F0006D
:100E4000084360602878C00728D06868012810D05F
:100E50002168022810D0890700292EDA616821F064
:100E6000030101436160FFF729FE804641F28839A2
:100E70000DE021688903EFE78901EDE7FFF71EFE2A
:100E8000A0EB0801494502D90320BDE8F08760685E
:100E9000696800F00C00B0EB810FEFD1306800F012
:100EA0000700B8420BD9306820F0070038433060A3
:100EB000306800F00700B84201D00120E5E728784B
:100EC000400705D56068E96820F4E0600843606089
:100ED0002878000706D56068296920F4605040EA48
:100EE000C100606000F058F86168084AC1F303115E
:100EF000515CC8400649086006480068FFF7FEFDDF
:100F00000020C2E7002002400010024050340008D8
:100F10000C000020040000200F2202600C4A5368DD
:100F200003F003034360536803F0F00383605368E6
:100F300003F4E063C36052684FF4E06303EAD20253
:100F400002610448006800F0070008607047000074
:100F5000001002400020024004480549006849682A
:100F6000044AC1F30221515CC84070470C000020C4
:100F700000100240603400080448054900684968D0
:100F8000044AC1F3C221515CC84070470C000020E4
:100F9000001002406034000812A185B00FC98DE82E
:100FA0000F0014A0144A006804905168134801F01F
:100FB0000C03042B10D0082B0ED1C1F38343C903BB
:100FC0001DF803000AD5516804AAC1F34041515CE1
:100FD0000A4A5043B0FBF1F005B070470849484356
:100FE000FAE7000002030405060708090A0B0C0DC6
:100FF0000E0F1010010200000010024000127A00D3
:1010000000093D002DE9F84F040070D02078C04D54
:10101000C00749D06868C0F38100012807D068681C
:10102000C0F38100022809D16868C00306D528688A
:10103000800339D560680028E7D035E06068B0F5F6
:10104000803F0BD010B1B0F5A02F11D0286820F44C
:1010500080302860286820F4802002E0286840F46E
:1010600080302860606890B1FFF728FD06460AE0EE
:10107000286840F480202860F0E700BFFFF71EFDDD
:10108000801B642873D828688003F7D50CE0FFF72D
:1010900015FD064605E000BFFFF710FD801B642824
:1010A000F0D828688003F7D420789A4E80074FF054
:1010B00001094FF0000839D5686810F00C0F07D00F
:1010C0006868C0F38100022809D16868C00306D4AB
:1010D0002868800714D52069012808D110E020690C
:1010E000B0B1C6F80090FFF7E9FC074605E00AE159
:1010F000FFF7E4FCC01B0228C4D828688007F7D596
:101100002868616920F0F80040EAC10028600DE01D
:10111000C6F80080FFF7D2FC074604E0FFF7CEFCDC
:10112000C01B022823D828688007F7D4207800073E
:101130002CD57948A169D9B1C0F80090FFF7BEFC61
:10114000074604E0FFF7BAFCC01B02280FD8686A04
:101150008007F7D571484FF4FA510068B0FBF1F001
:10116000009000BF0098411E0091FAD20EE080E08E
:10117000C0F80080FFF7A2FC074604E0FFF79EFCE2
:10118000C01B022875D8686A8007F7D4207840070A
:1011900060D5E8690027C00008D4E86940F08050B5
:1011A000E861E869012700F0805000905C48016820
:1011B000C90513D40168834641F480710160FFF7CB
:1011C0007DFC824606E000BFFFF778FCA0EB0A003A
:1011D00064284ED8DBF80000C005F5D5E06801288A
:1011E0000AD008B1052813D0286A20F0010028622F
:1011F000286A20F0040002E0286A40F0010028621A
:10120000E06841F2883B98B1FFF758FC82460BE05A
:10121000286A40F004002862EEE700BFFFF74EFCAA
:10122000A0EB0A0159455AD8286A8007F6D50CE088
:10123000FFF744FC824605E0FFF740FCA0EB0A0103
:1012400059454CD8286A8007F6D41FB1E86920F0C8
:101250008050E861E06988B36968C1F381010229BF
:1012600044D00228C6F8608004D0FFF727FC04466B
:1012700038E034E0FFF722FC074604E0FFF71EFCED
:10128000C01B02282BD828688001F7D4206AB0F54B
:10129000803F05D16868A16820F400300843686089
:1012A000D4E908010843696821F4741108436860AF
:1012B000C6F86090FFF702FC044606E025E000BF98
:1012C000FFF7FCFB001B022809D828688001F7D52E
:1012D0001BE000BFFFF7F2FB001B022802D903202E
:1012E000BDE8F88F28688001F4D40EE00128F7D01B
:1012F0006868226A00F48031914204D1616A00F486
:101300007010884201D00120EAE70020E8E70000E1
:101310000010024000004242800442420C000020C3
:10132000007000407047704710B5044600680168BF
:10133000C90717D04168C90714D040684007204644
:1013400007D5FFF7F0FF21686FF004004860042024
:1013500002E0FFF7E7FF012060742068416821F098
:101360000101416010BD000003480178002901D04F
:1013700001214170704700002700002010B504468D
:101380000068016889070AD54068800707D52046AC
:10139000FFF7EAFF2068416821F00201416003493C
:1013A0004FF4003008600120607410BD1404014047
:1013B00070B51D460C4660B35CB300F02DFC4FF4D5
:1013C0006161B0FBF1F21823B2FBF3F603FB1622C6
:1013D000B0FBF1F301FB13063C23B6FBF3F62270DE
:1013E0006670B0FBF1F601FB1600B0FBF3F103FBF6
:1013F0001100A0705DB1104600F06AFB20706078AB
:1014000000F066FB6070A07800F062FBA070002026
:1014100070BD012070BD2DE9F04791460C465FEA92
:1014200000084AD084B3D8F800004068400744D48C
:10143000404600F0F8FB4FF461620546B0FBF2F164
:10144000B0FBF2F302FB13503C23B0FBF3F0B5FB0F
:10145000F2F6607002FB1650B0FBF3F203FB1200D1
:10146000A070182931D31820B1FBF0F7B1FBF0F2CE
:1014700000FB12102070404600F0CEFB411C04D04F
:10148000A84202D9461B02E017E04FF0FF36A7EB57
:10149000071000EB4000C0EB001005EBC01529461B
:1014A000404600F00FFC40B9701C01D0711900E0FB
:1014B0003146404600F0F2FB10B10120BDE8F08754
:1014C0003946404600F00FFB00E02170B9F1000FF3
:1014D0000BD0207800F0FCFA2070607800F0F8FA69
:1014E0006070A07800F0F4FAA0700020E6E7000039
:1014F00070B5040003D0607C002610B105E0012027
:1015000070BD2674204600F043F802206074204627
:1015100000F02EF9042578BB204600F03BFB58BBB9
:101520002068416821F007014160A06820B1174898
:10153000016821F0010101601448001F0168A268E0
:1015400021F46071114301606068411C04D10120E5
:10155000FFF772FB80B1401E21688A6822F00F02FB
:1015600042EA10428A602168CA6860F30F02CA60CA
:10157000204600F029FB08B16574C0E7E67301203E
:101580006073A0736074002070BD0000306C004078
:1015900008B500680D49884217D1FFF747FB0C4892
:1015A000C16941F00061C161C0690A4900F0006091
:1015B000009001200860002211460320FFF704FB81
:1015C000BDE808400320FFF7F1BA08BD002800403D
:1015D000001002403C0442422DE9F8434FF000065F
:1015E00017460D46040000960FD075B1207C0128E7
:1015F0000ED04FF0010984F8109002206074002290
:1016000069462046FFF707FF20B10120BDE8F883B7
:101610000220FBE79DF800004FF4616148439DF80C
:101620000110C1EB011100EB81009DF8021000EBED
:1016300001082878E7B100F042FA4FF4616100FB3D
:1016400001F7687800F03BFAC0EB001007EB800769
:10165000A87800F034FA3918414501D217480144FE
:10166000204600F01BFB70B1042060742674CCE7A8
:101670004FF4616148436978C1EB011100EB8100CF
:10168000A9780144E8E72068416821F0020141603F
:101690002068016841F0020101600948016841F4D5
:1016A0000031016006480830016841F400310160F2
:1016B00084F8119026740020A8E7000080510100F2
:1016C000000401402DE9F0410D46040024D01DB373
:1016D000207C012823D04FF0010884F810800220DC
:1016E00060742878EAB100F0EAF94FF4616100FB18
:1016F00001F6687800F0E3F9C0EB001006EB800615
:10170000A87800F0DCF935182946204600F0DAFA0E
:101710000026042710BB0FE00120BDE8F081022065
:10172000FBE74FF4616148436978C1EB011100EBBD
:101730008100A9784518E7E72068416821F0050194
:101740004160204600F068FA411C0AD0A84208D245
:1017500006490144204600F0A1FA10B167742674CE
:10176000DAE784F8118026740020D6E78051010062
:1017700070B504000AD02068416821F0080141607A
:10178000FFF79CF905464FF47A7608E0012070BD1A
:10179000FFF794F9401BB04201D9032070BD2068C7
:1017A00040680007F4D5002070BD7047704710B541
:1017B000040003D094F83D0010B107E0012010BDF3
:1017C000002084F83C00204600F01EF8022084F837
:1017D0003D00211D206800F0D5FA012084F8460064
:1017E00084F83E0084F83F0084F8400084F841000B
:1017F00084F8420084F8430084F8440084F84500EB
:1018000084F83D00002010BD7047000090F83D10A6
:10181000012901D001207047022180F83D100168A4
:10182000CA6842F00102CA6000680B49884208D0C9
:10183000B0F1804F05D00949884202D0084988425A
:1018400004D1816801F00701062903D0016841F045
:101850000101016000207047002C0140000400409D
:1018600000080040704770B50446006801694FF0F9
:101870000005C943890715D4C168C943890711D434
:10188000E91E0161012020772068806980072046D9
:1018900002D0FFF7E7FF04E000F098F8204600F0E0
:1018A00096F8257720680169C943490717D4C168AC
:1018B000C943490713D46FF0040101610220207766
:1018C0002068806910F4407F204602D0FFF7CAFFED
:1018D00004E000F07BF8204600F079F825772068D6
:1018E0000169C943090716D4C168C943090712D45D
:1018F0006FF008010161042020772068C06980072B
:10190000204602D0FFF7AEFF04E000F05FF820466B
:1019100000F05DF8257720680169C943C90617D42E
:10192000C168C943C90613D46FF0100101610820D2
:1019300020772068C06910F4407F204602D0FFF76E
:1019400091FF04E000F042F8204600F040F82577CF
:1019500020680169C943C90708D1C168C943C907DB
:1019600004D1891E0161204600F032F82068016927
:10197000C943090609D4C168C943090605D46FF0F3
:10198000800101612046FFF710FF20680169C9430B
:10199000490609D4C168C943490605D46FF040011E
:1019A0000161204600F01EF820680169C9438906DC
:1019B0000BD4C168C943890607D46FF020010161C7
:1019C0002046BDE87040FFF7F1BE70BD704770471C
:1019D00000680349884201D1FFF776B870470000DC
:1019E000000800407047FEE73EB500241048009410
:1019F000019402940D49846001600125057304750A
:101A000005614FF460214460C161FEF731FE08B109
:101A100072B6FEE70095CDE9015469460448FEF729
:101A2000A5FD002801D072B6FEE73EBD00240140AE
:101A300090000020F0B585B000241C48009401946B
:101A400002940394816941F020018161816901F070
:101A500020010491816941F004018161816901F0F3
:101A600004010491816941F0080181618069104F8E
:101A700000F008004FF470460490012231463846C9
:101A8000FFF717F87C2001258DE8310069460948E9
:101A9000FEF71AFF0220CDE90240CDE90065694654
:101AA0003846FEF711FF05B0F0BD000000100240FF
:101AB000000C014000080140FEE7FEE77047010905
:101AC00001EB810100F00F0000EB4100C0B2704754
:101AD000002102E00A38C0B2491C0A28FAD20907DC
:101AE00040EA116070472DE9F04104460025C07BB3
:101AF000627BA37B42E0012A16D0032A14D0052A78
:101B000012D0072A10D0082A0ED00A2A0CD00C2A8C
:101B10000AD0042A10D0062A0ED0092A0CD00B2A8B
:101B20000AD0022A0DD028E01F2B0CD30C2A05D195
:101B300001221346401C20E01E2B04D30123521C1B
:101B40001BE01C2B02D203F1010316E011D183B27A
:101B50009E0710D16426B3FBF6F706FB173636B99D
:101B60004FF4C876B3FBF6F706FB17331BB91D23FA
:101B700003E01D2B01D1032201236D1C8D42BAD33A
:101B8000D1B2E0736173DAB2A27300F05CF8207333
:101B9000BDE8F08170B50446FEF790FF05464FF4AE
:101BA0007A7606E0FEF78AFF401BB04201D9032097
:101BB00070BD206840688006F4D52068416841F017
:101BC00010014160002070BD70B504460068416896
:101BD00021F010014160FEF771FF05464FF47A765F
:101BE00007E000BFFEF76AFF401BB04201D90320A7
:101BF00070BD206840688006F4D5002070BD0000EC
:101C000010B50448FFF7BAFBBDE810400148FFF7E4
:101C10008BBB0000C00000200168086A496A89B2D5
:101C200041EA00407047006881698AB2C1698BB29D
:101C3000816989B28A4203D0C06961F31F4070474D
:101C400043EA02407047F0B56424C1EBC1030927A1
:101C5000A500072603EB01130329B3FBF7F100F5F9
:101C6000FA60114401440AD2401EB0FBF4F201EBC9
:101C70009001B0FBF5F0891A0844001D08E0B0FBA4
:101C8000F4F201EB9001B0FBF5F0891A0844801CD6
:101C9000B0FBF6F106FB1100C0B2F0BD70B50D4609
:101CA00006460024FFF776FF48B93168280C086221
:101CB0003168A8B248623046FFF786FF00B10124C0
:101CC000204670BD70B50D4606460024FFF762FF42
:101CD00048B93168280C88613168A8B2C8613046BB
:101CE000FFF772FF00B10124204670BD70477047B6
:101CF00030B593B028216846FEF71BFA14210AA8D4
:101D0000FEF717FA00240F94092001211094009087
:101D1000119412944FF4803004910691CDE901049E
:101D20000225CDE907504FF4E01009906846FFF70F
:101D300069F908B172B6FEE70F20CDE90A054FF444
:101D40008060CDE90C4002210AA80E94FFF74EF8FE
:101D500008B172B6FEE703200F904FF400701090A8
:101D6000800111900FA8FEF7CBFF002801D072B6BA
:101D7000FEE713B030BD70470148FFF774BD0000A7
:101D8000D4000020F0B50268164B174C174D4FF0E9
:101D90008047984205D0B84203D0A04201D0A84263
:101DA00003D122F070064A683243984205D0B84207
:101DB00003D0A04201D0A84203D122F44074CA68E3
:101DC00022434C6922F08002224302608A68C26288
:101DD0000A688262984201D1096901630121416167
:101DE000F0BD0000002C014000040040000800404D
:101DF000FEE74100080218BF04200A0E18BF40F099
:101E000001004FF07F4232EA010108BF40F00200BA
:101E1000012808BF052070470907090E002804DBC8
:101E200000F1E02080F80014704700F00F0000F18E
:101E3000E02080F8141D70470121FEF74DBA002103
:101E40000846FEF70BBA6FF05E010807FEF744BACA
:101E50002DE9F04D0D4614464FF07F41B1EB440F94
:101E60009EBF4FF0FF312960BDE8F08D4FF000407C
:101E700040EA0421C4F3C750783810F01F024A4BDF
:101E80004FEA601CC2F120067B44C4F3C750A0F1A6
:101E900078004FEA601003EB800053F82C3008BF45
:101EA000D0E901C612D0D0F804C093402CFA06F74E
:101EB0003B4387680CFA02FC27FA06F8C06807FA69
:101EC00002F2F0404CEA080C42EA0006A3FB0132A1
:101ED000ACFB01C0A6FB016101EB0C068E4234BFD6
:101EE0004FF0010C4FF0000CC1186144BCF1000F21
:101EF00002D0814202D903E0814201D2012000E0F8
:101F00000020104400F120024FEA92188006CA0C0B
:101F100040EA42304F03C5F80080FEF7E9F98246F7
:101F20003846FEF7EEF96FF01201FEF7D5F90746D5
:101F30003046FEF7E6F96FF02501FEF7CDF983464E
:101F400039465046FEF700F95946FEF7FDF800F510
:101F500000666FF30B0651463046FEF747F93946E7
:101F6000FEF744F95946FEF744F91049FEF744F9E3
:101F700007460F493046FEF73FF93946FEF7E4F8C9
:101F800007460C493046FEF737F93946FEF7DCF8CC
:101F900014F0004F08BFBDE8F08DC8F1805180F00B
:101FA00000402960BDE8F08DB4180000DB0FC92F98
:101FB00022AAFD290000C92F02E008C8121F08C18B
:101FC000002AFAD170477047002001E001C1121FBA
:101FD000002AFBD1704700000149086070470000EB
:101FE0008C0000202DE9F0411D4C1E486568FEF76D
:101FF0003BFBFEF786F91C49FEF7FEF81B49FEF78E
:10200000FBF81B49FEF7F8F86FF00B01FEF764F9D7
:102010006FF00101FEF760F9FEF791F9FEF771F933
:10202000216807460E46FEF7E1F8FEF76FF9002833
:1020300000DA40420A2800DD0E4D4FF07E5029465E
:10204000FEF7D4F83146FEF7D7F80646384629465B
:10205000FEF7D2F83146FEF777F82060BDE8F08150
:10206000180000209000002038F8823F00503C45C6
:102070000000E0409A99193F10B50448FEF7B2FB02
:102080000448034901600449416010BD90000020EC
:1020900000406745180000200AD7A33B0548417857
:1020A000002905D0002141700521153000F0A5BEA2
:1020B000704700002700002010B50022064907489D
:1020C000FFF7A9F9044900230122BDE810400B31B4
:1020D0000248FFF76DB9000021000020C000002079
:1020E00002494822A1F1080000F076BE4400002019
:1020F00010B5FFF7E1FFFFF7D1FFBDE81040014841
:1021000000F06FBE3C00002010B500F0A7FA00F010
:10211000AFFE012803D0032801D0052805D1BDE872
:1021200010400021014800F068BE10BD3C000020B6
:1021300000F0C4BA70B500F01FFA00F099FE3A4DF5
:102140000026EC1D012811D0012204F10D01022806
:102150001ED0042841D0052860D0032805D194F969
:102160000400002801DD401E207170BD287840B1B8
:102170002D49002214312D48FFF72EFAA078207047
:102180002E70BDE87040284801211C3000F035BE9B
:102190002A7094F9040048B101280ED0022813D007
:1021A0000328E2D1A07890B3002014E00878172823
:1021B00001D30E7070BD401C20E048783B2801D34D
:1021C0004E7070BD401C20E088783B2801D38E7093
:1021D00070BD401C0DE0A07070BD2A7094F9040021
:1021E00048B13B2201280DD00228D9D1887888B186
:1021F000401E887070BD087810B1401E087070BD18
:102200001720FBE7487818B1401E487070BD03E006
:102210004A70FBE78A70F9E70120DCE794F90400D3
:102220000328F3DA401C9FE720000020C0000020B4
:1022300010B500F0E9F9054800210171C11FD1E98D
:102240000323C1E905230178817010BD2700002018
:1022500010B500F075FA00F00BFE012805D1BDE8BD
:1022600010400121014800F0C8BD10BD3C00002015
:1022700000F0B2BA10B500F0EFFA00F0F9FD00225C
:102280001749062805D2DFE800F0040305140E14F0
:10229000CA7010BD91F90300012801D5032000E0A8
:1022A000401EC87010BD91F90300401C0428EFDAED
:1022B000F7E791F9030060B101280CD002280CD097
:1022C0000328EFD104210648BDE81040153000F086
:1022D00094BD0021F7E70221F5E70321F3E70000B1
:1022E0002700002000F0D6BA10B500F039FB00F04E
:1022F000BFFD012805D1BDE810400121014800F0D3
:102300007CBD10BD3C00002010B500F089FB3448B6
:10231000B0F801108180C178817100F0A9FD012819
:1023200011D02F49091DCA1C022813D004282BD014
:1023300005284ED0032805D192F90400002801DDBC
:10234000401E107110BD26480121BDE810401C3010
:1023500000F053BD92F90400002220B1012809D0F9
:1023600002282ED10BE00878172801D30A7028E044
:10237000401C15E048783B281BD2401C17E08878A9
:102380003B281DD2401C19E092F9040028B13B22E1
:10239000012809D0022814D10DE0087810B1401EA0
:1023A00008700EE01720FBE7487810B1401E487017
:1023B00007E04A7005E0887810B1401E887000E0A0
:1023C0008A7007490022BDE81040091D0548FFF743
:1023D00079B992F904000228B4DA401CB1E7000090
:1023E00020000020C000002010B500F053FB02497F
:1023F0000020087110BD0000270000202DE9F843DF
:10240000044602464F486946B0EB420F09D94FF0E7
:10241000E640B0EB420F94BF00204FF0FF30009039
:1024200030E0494B22F00040834271D947492046B1
:10243000FDF7E2FEFDF7FDFF8046FDF767FF00F0C8
:102440000300009042494046FDF7D6FE054641494B
:102450004046FDF7D1FE06463F494046FDF7CCFE1B
:1024600007463E494046FDF7C7FE2146FDF7C1FE3F
:102470003946FDF7BBFE3146FDF7B8FE2946FDF7AC
:10248000B5FE04462546009C002C45DB294614F089
:10249000010F08461CD0FDF7AFFE06463049FDF798
:1024A000ABFE3049FDF7A5FE3146FDF7A5FE2E49EE
:1024B000FDF74AFE3146FDF79FFE2946FDF79CFEDB
:1024C0002946FDF741FE14F0020F1CD0BDE8F88349
:1024D000FDF792FE05462549FDF78EFE2449FDF7DE
:1024E00033FE2946FDF788FE2249FDF72DFE2946D9
:1024F000FDF782FE4FF07E51FDF726FE14F0020F2D
:1025000008BFBDE8F88380F00040BDE8F883FFE72E
:102510001046FFF79DFCB4E76800B0F17F4F3CBF69
:102520004FF07E50BDE8F88307D14FF00100FFF770
:1025300053FDBDE8F843FFF782BC2846BDE8F843E9
:10254000FFF77ABCB61F927E490E494683F9223FB7
:102550001A61342C0020A23300A0FD390000C93FCD
:10256000336D4C39DA82083CA0AA2ABEB93AB2BA15
:10257000CA9F2A3DDDFFFFBEF8B51CA00068009091
:1025800000F0B2FA1A4C0222114623782A2000F0F9
:102590009FFD0222637811463C2000F099FD022243
:1025A000A37811464E2000F093FD124DA87808B193
:1025B00011A200E011A20221642000F049FD0024D4
:1025C0004FEA0D0695F90400A042305D00F10600C7
:1025D000C0B201D10AA200E00AA2032100F038FD36
:1025E000641CE4B2042CEDD3F8BD00002A3C4E6418
:1025F00034000020270000204F4E20004F464600A8
:102600005E0000002000000010B500F071FC002109
:102610000A22084600F042FD08A200210F2000F027
:1026200017FD0AA20221002000F012FD0022BDE8E1
:1026300010400721104600F031BD0000416C61726E
:102640006D2073657474696E67000000416C61727F
:102650006D3A2020203A20203A00000010B500F00A
:1026600043FA144C0222042123782A2000F030FD82
:102670006378022204213C2000F02AFDA378022284
:1026800004214E2000F024FD0B4C0222052123786A
:102690002A2000F01DFD6378022205213C2000F075
:1026A00017FDA37802220521BDE810404E2000F05E
:1026B0000FBD0000210000202C00002010B500F00C
:1026C00017FC10A200210F2000F0C2FC00210A22FA
:1026D000084600F0E3FC0DA202210C2000F0B8FC3B
:1026E0000FA20421002000F0B3FC11A2052100205C
:1026F00000F0AEFC0022BDE810400721104600F0BB
:10270000CDBC0000416C61726D0000003E20546938
:102710006D65206973207570212121203C00000027
:1027200054696D65203A2020203A20203A000000AC
:10273000416C61726D3A2020203A20203A0000005E
:1027400010B500F0D1F91E4C0222114623782A2040
:1027500000F0BEFC0222637811463C2000F0B8FC79
:102760000222A37811464E2000F0B2FC154C022242
:10277000032123782A2000F0ABFC63780222032196
:102780003C2000F0A5FCA378022203214E2000F09B
:102790009FFC0D480068FDF7B9FD03B20522042136
:1027A0002E2000F095FC0948007808B108A200E04E
:1027B00008A20321BDE81040642000F049BC0000DD
:1027C000210000202C0000201800002027000020FD
:1027D0004F4E20004F46460010B500F089FB10A276
:1027E00000210F2000F034FC00210922084600F0EF
:1027F00055FC0DA20221002000F02AFC0EA20321AC
:10280000002000F025FC10A20421002000F020FC94
:102810000022BDE810400721104600F03FBC000038
:10282000496E666F0000000054696D65203A2020F3
:10283000203A20203A000000416C61726D3A20205D
:10284000203A20203A000000426174746572793A9F
:1028500020202020206D560070B500F045F90A4D6B
:10286000002400BF95F90300A04204F10200C1B2A8
:1028700001D106A200E006A2002000F0E9FB641CE2
:10288000E4B2042CEED370BD270000203E0000000F
:102890002000000010B500F02BFB00210C220846A0
:1028A00000F0FCFB1CA200210F2000F0D1FB1CA2B9
:1028B0000221002000F0CCFB1CA20321002000F02C
:1028C000C7FB1FA20421002000F0C2FB21A20521AA
:1028D000002000F0BDFB082202210C2000F0DEFBEE
:1028E0000B2203210C2000F0D9FB0A2204210C202A
:1028F00000F0D4FB092205210C2000F0CFFB0022C0
:102900000721104600F0CAFB01220721BDE8104054
:10291000732000F0C3BB00004D656E750000000021
:102920002020202020436C6F636B0000202020209B
:102930002054696D652053657474696E67000000EA
:102940002020202020416C61726D205365747469D1
:102950006E6700002020202020496E666F00000076
:10296000F8B500F05FF91F223F21202000F0F0F8B9
:1029700002223F21202000F0EBF800245A25AE006F
:10298000B4FBF5F005FB1040002820B24FF01E0309
:10299000009040D01D223F21202000F04BF91E3432
:1029A000A4B2B442ECD31D4C4FF4B4713C25207852
:1029B0000E2348430C21B0FBF1F061780322C1EBF8
:1029C00001114900B1FBF5F1084400B200903F212C
:1029D000202000F02FF960784FF4B4714843B0FB29
:1029E000F5F000B20090132303223F21202000F0D5
:1029F00021F9A0784FF4B4714843B0FBF5F000B270
:102A00000090182303223F21202000F013F9BDE895
:102A1000F84000F0CFB91B22BDE7000021000020E4
:102A2000F8B517A00068009000F05EF8154C02227F
:102A3000114623782A2000F04BFB022263781146CE
:102A40003C2000F045FB0222A37811464E2000F006
:102A50003FFB0D4E00246D4696F90400A042285D10
:102A600000F10600C0B201D108A200E008A20321D3
:102A700000F0EEFA641CE4B2032CEDD3F8BD0000C4
:102A80002A3C4E0021000020270000205E000000AC
:102A90002000000010B500F02BFA00210B220846A0
:102AA00000F0FCFA08A200210F2000F0D1FA0AA2DF
:102AB0000221002000F0CCFA0022BDE810400721DE
:102AC000104600F0EBBA000054696D652073657420
:102AD00074696E670000000054696D65203A20201B
:102AE000203A20203A000000134810B5006813492E
:102AF000884201DD02220FE01149884201DD0322F4
:102B00000AE01049884201DD042205E00E498842AE
:102B100001DD052200E006220021732000F0BEFA4C
:102B20000A480078002806D00A220021BDE810409B
:102B3000642000F0B3BA10BD1800002000007A45F0
:102B400000806D450000614500805445270000204D
:102B50002DE9F05F154607460E4602FB05F0FDF72E
:102B6000C7FB8346002459E004FB04F0FDF7C0FBDB
:102B70005946FDF73EFB00F055FC4FF07C51FDF748
:102B8000E3FAFDF7DCFB85B205EB060804EB070A68
:102B90001FFA88F11FFA8AF0012200F011F9A7EB61
:102BA00004091FFA88F11FFA89F0012200F008F9E0
:102BB000A6EB05081FFA88F11FFA8AF0012200F03F
:102BC000FFF81FFA88F11FFA89F0012200F0F8F8E7
:102BD00004EB060805EB070A1FFA88F11FFA8AF0D2
:102BE000012200F0EDF8A7EB05091FFA88F11FFAA2
:102BF00089F0012200F0E4F8A6EB04081FFA88F13E
:102C00001FFA8AF0012200F0DBF81FFA88F11FFAA0
:102C100089F0012200F0D4F8641CA4B2AC42A3D91C
:102C2000BDE8F09F4FF400510148FDF782BA000063
:102C30001C0100202DE9F05F81460A989B46C0F1F7
:102C40005A0092460E4600B2FDF752FB2A49FDF7A4
:102C5000D3FA2A49FDF702FB0546FFF7CFFB0446EE
:102C6000284600F01BFB07463046FDF74AFB80462E
:102C700046465046FDF745FB05462146FDF7BCFAA2
:102C800000F0D2FA3146FDF75FFAFDF73FFB06464A
:102C900028463946FDF7B0FA00F0C6FA0546484620
:102CA000FDF72FFB82462946FDF7A0FAFDF72EFB24
:102CB00005465846FDF725FB81462146FDF79CFA5F
:102CC00000F0B2FA4146FDF73FFAFDF71FFB04465C
:102CD00048463946FDF790FA00F0A6FA01465046FC
:102CE000FDF784FAFDF712FB82B2A3B2B1B2A8B22B
:102CF000BDE8F05F00F004B8D00F49400000344355
:102D00002DE9FF5F88460098A3EB0805141AC4F16B
:102D1000000001D4224600E00246A3EB08012E1E6B
:102D2000C1F1000101DB334600E00B469A4204DDAD
:102D3000002C00DB204687B203E0002D00DB294693
:102D40008FB2002632E03846FDF7DBFA8346D946DB
:102D500005FB06F0FDF7CCFA4946FDF77FFA814600
:102D60004046FDF7CEFA4946FDF7EEF900F05CFA71
:102D7000FDF7E5FA1FFA80FAD94604FB06F0FDF7E5
:102D8000B7FA4946FDF76AFA81460098FDF7B9FAA5
:102D90004946FDF7D9F900F047FAFDF7D0FA80B2BD
:102DA0000122514600F00CF8761CB6B2BE42CAD9D8
:102DB000BDE8FF9F014800F0AEB800001C010020F4
:102DC000402805D2802903D2024B03EBC0104254A5
:102DD000704700001C010020002303600280416056
:102DE000704741684088082200EB400002EB8000F9
:102DF0000858002800D00047704770B50546408845
:102E00000C46A04209D004EB44010422686802EB9E
:102E10008101405800B180476C8070BD10B5134CE3
:102E200004212046FDF740FEA8B108212046FDF709
:102E30003BFE90B110212046FDF736FE78B12021EF
:102E40002046FDF731FE60B140212046FDF72CFE03
:102E500048B1002010BD012010BD022010BD03208C
:102E600010BD042010BD052010BD00000008014069
:102E700070B5FFF7D3FF0A4C05000DD0207801286C
:102E80000CD00520FDF70EFDFFF7C8FFA84205D1C5
:102E900001202070284670BD00202070002070BDE9
:102EA00010000020FDF718FEFEF722FFFEF7C2FD1E
:102EB000FEF79AFD0D480C4901604FF0FF3141606B
:102EC0004FF480718160FEF713FB08B172B6FEE724
:102ED00000F044F8FFF7D0F8FFF702F9FFF708F920
:102EE000FFF780F8FAE7000000280040C00000204B
:102EF00070B500242146002000F020F900250020B4
:102F000000F060F96D1CEDB2802DF8D3641CE4B2C2
:102F1000082CEFD370BD70B5064600242146002072
:102F200000F00CF9002505EB842100208AB201464F
:102F3000B35C40080BB140F080008032491CC9B23C
:102F400092B20829F4D300F03DF96D1CEDB2802D4A
:102F5000E9D3641CE4B2082CE0D370BD70B53B4CDF
:102F6000012291032046FDF7A4FD0122D103204652
:102F7000FDF79FFD012211032046FDF79AFD651420
:102F8000002229462046FDF794FD0A20FDF78AFC21
:102F9000012229462046FDF78CFDAE2000F0E0F826
:102FA000002000F0DDF8102000F0DAF8402000F0FA
:102FB000D7F8812000F0D4F8CF2000F0D1F8A1207C
:102FC00000F0CEF8C82000F0CBF8A62000F0C8F83A
:102FD000A82000F0C5F83F2000F0C2F8D32000F090
:102FE000BFF8002000F0BCF8D52000F0B9F8802030
:102FF00000F0B6F8D92000F0B3F8F12000F0B0F8F6
:10300000DA2000F0ADF8122000F0AAF8DB2000F082
:10301000A7F8402000F0A4F8202000F0A1F802203A
:1030200000F09EF88D2000F09BF8142000F098F836
:10303000A42000F095F8A62000F092F8AF2000F050
:103040008FF8BDE87040FFF753BF0000000C01404F
:103050002DE9F0411646054600F070F8DFF838809B
:1030600013E0C0B200EB4000002408EB400706E08C
:10307000385D00F0A7F8641CE4B2062C02D22819CF
:103080008028F5D3AD1DEDB2761C307820385E284F
:10309000E7D9BDE8F08100006834000870B5164635
:1030A000054600F04BF8094906EB4600002401EB09
:1030B000800606E0305D00F085F8641CE4B20C2C5C
:1030C00002D228198028F5D370BD0000A23600086E
:1030D000F0B40027062A00D90622002B02DA5B4250
:1030E0001BB20127144D0024AC7105245FF00A06C1
:1030F00093FBF6FC06FB1C3C93FBF6F30CF1300C47
:1031000005F804C0A4F101041BB264B20BB1002C99
:10311000EEDA1FB12D262E55641E64B22023002C3A
:1031200003DB2B55641E64B2F9E7C2F106022A44A0
:10313000F0BCFFF78DBF00001100002010B5044661
:10314000B031C8B200F00CF804F00F0000F008F83D
:10315000102040EA1410BDE8104000F001B8000053
:103160002DE9F047164E05464FF480590022494696
:103170003046FDF79EFC00244FF480484FF4004792
:10318000002239463046FDF794FC280601D501227D
:1031900000E0002241463046FDF78BFC0122394613
:1031A0003046FDF786FC6806641C050EE4B2082C68
:1031B000E6D349463046BDE8F0470122FDF779BC29
:1031C000000C01402DE9F047164E05464FF480599A
:1031D000012249463046FDF76CFC00244FF480483C
:1031E0004FF40047002239463046FDF762FC2806BE
:1031F00001D5012200E0002241463046FDF759FC8E
:10320000012239463046FDF754FC6806641C050E61
:10321000E4B2082CE6D349463046BDE8F047012227
:10322000FDF747BC000C014070B50546FDF701F9FC
:10323000044601462846FCF7D9FF15F0004F4FF031
:103240007F410ED0B0F13F4F28BFB1EB400F0ED2FF
:10325000B0F17C5F1DDDB1EB400F1AD313E00446E3
:1032600017E0B0F13F4F08D9B1EB400F05D34FF055
:103270007E512046FCF7BAFFF1E7B0F17C5F08DB36
:10328000B1EB400F05D34FF07E512046FCF75CFFB9
:10329000E5E7284664F31E0070BD00002DE9F84301
:1032A0000446024652486946B0EB420F09D94FF036
:1032B000E640B0EB420F94BF00204FF0FF3000908B
:1032C00030E04C4B22F00040834271D94A492046FD
:1032D000FCF792FFFDF7ADF88046FDF717F800F018
:1032E0000300009045494046FCF786FF05464449E7
:1032F0004046FCF781FF064642494046FCF77CFF0A
:10330000074641494046FCF777FF2146FCF771FF2D
:103310003946FCF76BFF3146FCF768FF2946FCF79E
:1033200065FF04462546009C002C45DB294614F029
:10333000010F08461ED0FCF75FFF05463349FCF736
:103340005BFF3349FCF700FF2946FCF755FF314985
:10335000FCF7FAFE2946FCF74FFF4FF07E51FCF7D1
:10336000F3FE14F0020F08BFBDE8F88380F00040C0
:10337000BDE8F883FCF740FF06462749FCF73CFF11
:103380002649FCF736FF3146FCF736FF2449FCF7A7
:10339000DBFE3146FCF730FF2946FCF72DFF2946BE
:1033A000FCF7D2FE14F0020FE0D1BDE8F883FFE78E
:1033B0001046FEF74DFDB4E76800B0F17F4F09D22B
:1033C0002846FEF716FD042808BFFEF73CFD2846F8
:1033D000BDE8F88306D10120FEF7FEFDBDE8F84305
:1033E000FEF72DBD2846BDE8F843FEF725BD0000D9
:1033F000B61F927E490E494683F9223F1A61342C4A
:103400000020A23300A0FD390000C93FB93AB2BA8A
:10341000CA9F2A3DDDFFFFBE336D4C39DA82083C7E
:10342000A0AA2ABE70B50546FCF7D4FF044620F0DA
:103430000040C0F1FF40C00F08D025F00040C0F1AF
:10344000FF40C00F04BF0120FEF7C6FD204670BD3F
:103450000000000000000000010203040607080944
:103460000000000001020304000000000000000052
:10347000002F000000000700070000147F147F14D5
:1034800000242A7F2A12006264081323003649555B
:10349000225000000503000000001C224100000033
:1034A00041221C000014083E08140008083E0808C9
:1034B000000000A060000008080808080000606024
:1034C0000000002010080402003E5149453E000063
:1034D000427F4000004261514946002141454B3145
:1034E000001814127F10002745454539003C4A4911
:1034F0004930000171090503003649494936000683
:103500004949291E000036360000000056360000EA
:103510000008142241000014141414140000412265
:10352000140800020151090600324959513E007C3D
:103530001211127C007F49494936003E4141412227
:10354000007F4141221C007F49494941007F090910
:103550000901003E4149497A007F0808087F0000C0
:10356000417F4100002040413F01007F081422417B
:10357000007F40404040007F020C027F007F040833
:10358000107F003E4141413E007F09090906003E8F
:103590004151215E007F09192946004649494931B8
:1035A0000001017F0101003F4040403F001F2040DB
:1035B000201F003F4038403F006314081463000799
:1035C0000870080700615149454300007F414100F0
:1035D000000204081020000041417F0000040201A5
:1035E000020400404040404000000102040000206E
:1035F00054545478007F48444438003844444420AC
:1036000000384444487F00385454541800087E0958
:1036100001020018A4A4A47C007F08040478000020
:10362000447D4000004080847D00007F10284400DD
:103630000000417F4000007C04180478007C0804EE
:10364000047800384444443800FC2424241800182A
:10365000242418FC007C0804040800485454542016
:1036600000043F444020003C4040207C001C20409F
:10367000201C003C4030403C004428102844001CE2
:10368000A0A0A07C004464544C4400106C82000054
:10369000000000EE0000000000826C1000102010FE
:1036A000081010387CD6921010101010180F08084F
:1036B0000808080808496B3E1C08FF81BD81BD81D0
:1036C000BD81BD81FF3CFF81BD81BD81BD81818107
:1036D000FF3CFF81BD81BD8181818181FF3CFF81F4
:1036E000BD81818181818181FF3CFF8181818181D7
:1036F00081818181FF3CFF81858D99BD8D99B1814B
:10370000FF3C00003C42819D9191423C0000000042
:10371000000088FAFA8000000000000080C0BC822F
:103720008382BCC080001818181818183C7E666682
:1037300066240000002A2A2A2A2A2A000000000003
:10374000000000006E83F9A22915444ED15727FCD2
:10375000C0DD34F5999562DB4190433CAB6351FE8B
:10376000803700080000002090000000B81F00080B
:10377000103800089000002090240000C81F0008A6
:103780000100000010000000000000000024F40010
:103790000000000000000000000000000000000029
:1037A0000000000000000000000000000000000019
:1037B0000000000000000000000000000000000009
:1037C000000000000000000000000000E9220008E6
:1037D00001000000E5220008752200080200000038
:1037E000E923000809230008030000003122000833
:1037F0003521000804000000712200085122000851
:103800000500000031210008092100080000000027
:04000005080000ED02
:00000001FF
